:02000000822854
:100020002C20910190010310920D930D900D910DD4
:100030000D081102031D1E280C081002031C27289E
:100040000C089002031C91030D08910203148E0DFD
:100050008F0D940B13280034103094000F08930078
:100060000E0892008F018E0100348C098C0A03194E
:100070008D038D0900340C088E0703188F0A0D08B4
:100080008F0700342C20930C920C03183B208F0C0C
:100090008E0C910C900C940B43280034831608129C
:1000A000081555308900AA3089008814081E562882
:1000B00008118312080083160814831208008C00AC
:1000C00000308D0064308F0000308E00102008005A
:1000D0008030A9000630A800A80B6C280000051885
:1000E0006828A90B6A2808002914A801050C031C1C
:1000F0007D2829187F282808080000000000A90D85
:10010000A80A7628061486140615861580308316EC
:1001100086008312861B222900019700980099000F
:100120009A00FF309B009C009D009E006820742078
:100130007420AA007420AB007420AC007420AD00C1
:100140002A0896001B0816020318A82816089B0008
:10015000160817020318AE28160897002B089600F9
:100160001C0816020318B62816089C001608180268
:100170000318BC28160898002C0896001D081602C3
:100180000318C42816089D00160819020318CA2867
:10019000160899002D0896001E0816020318D2288A
:1001A00016089E0016081A020318D82816089A0086
:1001B000861F96281B0817025F20003089001B0845
:1001C00088004E20013089000F0888004E20023040
:1001D00089000E0888004E201C0818025F2003309A
:1001E00089001C0888004E20043089000F08880010
:1001F0004E20053089000E0888004E201D08190287
:100200005F20063089001D0888004E2007308900D5
:100210000F0888004E20083089000E0888004E2004
:100220001E081A025F20093089001E0888004E202F
:100230000A3089000F0888004E200B3089000E0814
:1002400088004E20A301A401A501A60164309400FA
:10025000061206100614861086140611061586115D
:100260008615940B2929003089005B2008089B0023
:10027000013089005B2008089F00023089005B2064
:1002800008089700033089005B2008089C000430B0
:1002900089005B200808A000053089005B20080861
:1002A0009800063089005B2008089D00073089000F
:1002B0005B200808A100083089005B20080899002D
:1002C000093089005B2008089E000A3089005B2005
:1002D0000808A2000B3089005B2008089A006820FB
:1002E00074207420AA007420AB007420AC00742029
:1002F000AD002A0896001B081602031C00018C00A2
:100300008D0117088E001F088F00422064301102F3
:10031000110803186430A7002302A8000319A129BB
:10032000031899290616000006100614A80F922932
:100330009F290612000006100614A80B9929270809
:10034000A3002B0896001C081602031C00018C0059
:100350008D0118088E0020088F00422064301102A1
:10036000110803186430A7002402A8000319C92942
:100370000318C1290616000086108614A80FBA2992
:10038000C7290612000086108614A80BC129270869
:10039000A4002C0896001D081602031C00018C0006
:1003A0008D0119088E0021088F004220643011024F
:1003B000110803186430A7002502A8000319F129C9
:1003C0000318E9290616000006110615A80FE229F0
:1003D000EF290612000006110615A80BE9292708C7
:1003E000A5002D0896001E081602031C00018C00B3
:1003F0008D011A088E0022088F00422064301102FD
:10040000110803186430A7002602A8000319192A4E
:100410000318112A0616000086118615A80F0A2A4D
:10042000172A0612000086118615A80B112A270824
:10043000A600861600000000000000008612861B41
:040440006F298C286C
:00000001FF
