:0200000068286E
:100020002C20910190010310920D930D900D910DD4
:100030000D081102031D1E280C081002031C27289E
:100040000C089002031C91030D08910203148E0DFD
:100050008F0D940B13280034103094000F08930078
:100060000E0892008F018E0100348C098C0A03194E
:100070008D038D0900340C088E0703188F0A0D08B4
:100080008F0700342C20930C920C03183B208F0C0C
:100090008E0C910C900C940B43280034831608129C
:1000A000081555308900AA3089008814081E562882
:1000B00008118312080083160814831208008C00AC
:1000C00000308D0064308F0000308E00102008005A
:1000D0000614861406158615803083168600831252
:1000E000861B2E2900019700980099009A00FF3086
:1000F0009B009C009D009E00960105187D28051C14
:100100007F28960A000000000000000000000000A8
:10011000051881281B0816020318902816089B0052
:1001200016081702031896281608970096018518D6
:100130009728851C9928960A0000000000000000FE
:100140000000000085189B281C0816020318AA2826
:1001500016089C00160818020318B0281608980004
:1001600096010519B128051DB328960A0000000064
:1001700000000000000000000519B5281D08160247
:100180000318C42816089D00160819020318CA2867
:100190001608990096018519CB28851DCD28960A49
:1001A0000000000000000000000000008519CF28BA
:1001B0001E0816020318DE2816089E0016081A02EA
:1001C0000318E42816089A00861F7C281B081702CB
:1001D0005F20003089001B0888004E200130890014
:1001E0000F0888004E20023089000E0888004E203B
:1001F0001C0818025F20033089001C0888004E206C
:10020000043089000F0888004E20053089000E0850
:1002100088004E201D0819025F20063089001D0845
:1002200088004E20073089000F0888004E200830D3
:1002300089000E0888004E201E081A025F2009302F
:1002400089001E0888004E200A3089000F088800A7
:100250004E200B3089000E0888004E20A301A40117
:10026000A501A6016430940006120610061486103B
:1002700086140611061586118615940B3529003053
:1002800089005B2008089B00013089005B2008087A
:100290009F00023089005B20080897000330890026
:1002A0005B2008089C00043089005B200808A0003F
:1002B000053089005B2008089800063089005B2023
:1002C00008089D00073089005B200808A10008305D
:1002D00089005B2008089900093089005B20080824
:1002E0009E000A3089005B200808A2000B308900BC
:1002F0005B2008089A00960105187C29051C7E29B8
:10030000960A000000000000000000000000051830
:1003100080291B081602031C00018C008D011708A0
:100320008E001F088F00422064301102110803184C
:100330006430A7002302A8000319AF290318A729D6
:100340000616000006100614A80FA029AD290612F3
:10035000000006100614A80BA7292708A300960181
:100360008518B029851CB229960A000000000000FB
:100370000000000000008518B4291C081602031CA8
:1003800000018C008D0118088E0020088F0042208B
:1003900064301102110803186430A7002402A80079
:1003A0000319E3290318DB290616000086108614BA
:1003B000A80FD429E1290612000086108614A80B84
:1003C000DB292708A40096010519E429051DE62963
:1003D000960A00000000000000000000000005195F
:1003E000E8291D081602031C00018C008D01190864
:1003F0008E0021088F00422064301102110803187A
:100400006430A7002502A8000319172A03180F2A31
:100410000616000006110615A80F082A152A06124E
:10042000000006110615A80B0F2A2708A500960143
:100430008519182A851D1A2A960A00000000000056
:1004400000000000000085191C2A1E081602031C6B
:1004500000018C008D011A088E0022088F004220B6
:1004600064301102110803186430A7002602A800A6
:1004700003194B2A0318432A061600008611861515
:10048000A80F3C2A492A0612000086118615A80BDF
:10049000432A2708A600861600000000000000007E
:0804A0008612861B7B297228DD
:00000001FF
